:020000040800F2
:10000000C8050020650100086D0100086F010008A7
:10001000710100087301000875010008000000006C
:100020000000000000000000000000007701000850
:1000300079010008000000007B0100087D01000834
:100040007F0100087F0100087F0100087F01000890
:100050007F0100087F0100087F0100087F01000880
:100060007F0100087F0100087F0100087F01000870
:100070007F0100087F0100087F0100087F01000860
:100080007F0100087F0100087F0100087F01000850
:10009000A50200087F0100087F0100085D0E00082E
:1000A0007F0100087F0100087F0100087F01000830
:1000B0007F0100087F0100087F0100087F01000820
:1000C0007F0100087F0100087F0100087F01000810
:1000D0007F0100087F0100087F0100087F01000800
:1000E000B50D00087F0100087F0100080000000036
:1000F0000000000000000000000000000000000000
:1001000000000000000000007F0100087F010008DF
:100110007F0100087F0100087F0100087F010008BF
:100120007F0100087F0100087F0100087F010008AF
:100130007F0100087F0100087F0100087F0100089F
:100140007F0100087F0100087F0100087F0100088F
:10015000DFF80CD000F04AF80048004741220008C0
:10016000C80500200648804706480047FEE7FEE72E
:10017000FEE7FEE7FEE7FEE7FEE7FEE7FEE7FEE757
:10018000111C0008510100082DE9F05F0546002010
:1001900092469B4688460646814640241BE02846F8
:1001A00041464746224600F042F853465A46C01A96
:1001B000914110D311461846224600F029F82D1A15
:1001C00067EB01084F4622460120002100F020F88D
:1001D00017EB00094E41201EA4F10104DFDC484664
:1001E00031462A464346BDE8F09F0000064C074DC5
:1001F00006E0E06840F0010394E8070098471034F7
:10020000AC42F6D3FFF7A8FF182A0008382A0008E6
:10021000202A04DB203A00FA02F1002070479140C6
:10022000C2F1200320FA03F3194390407047202ABB
:1002300004DB203A21FA02F00021704721FA02F390
:10024000D040C2F12002914008431946704770B572
:100250008C1810F8015B15F0070301D110F8013B71
:100260002A1106D110F8012B03E010F8016B01F8F8
:10027000016B5B1EF9D12B0705D40023521E0DD450
:1002800001F8013BFAE710F8013BCB1A921C03E09E
:1002900013F8015B01F8015B521EF9D5A142D8D3D6
:1002A000002070BD10B586B00120019000200290A2
:1002B0008DF80C0007208DF80E0000208DF8170037
:1002C0008DF80F0001AA0021974800F0D5FB97A0F8
:1002D00001F05EFD00200AE00DF10F01095C984A73
:1002E00011540DF10F01095C964A1154401C072866
:1002F000F2DB934880789249497800EB0120C0F303
:100300000E00914908808E4880788D49497800EB2D
:1003100001208E4908808A4800798949C97800EB14
:1003200001208B490880864880798549497900EB0E
:100330000120884908808248007801287AD1052167
:100340007F4800F0B5FC834909888842F6D17F4890
:100350000088A0F540400538002871D17C4800880D
:100360004AF25111884234D17BA001F011FD01F015
:1003700047F9352001F0D4F87A4801F0D7F8002485
:100380000DE004EB4402784B03EB82025189754A7D
:10039000022303FB042001F013F9601C84B21F2C1C
:1003A000EFDB01F003F900206649C87008710521F0
:1003B000644800F07DFC6749088008460088001208
:1003C00060494871634800788871012001F060FE3F
:1003D00035E05F4800884AF2531188422CD163A06F
:1003E00001F0D6FC00200DE000EB40015E4A02EB7C
:1003F0008101098900EB40025B4B03EB82025181D2
:10040000411C88B21F28EFDB00204E49C8700871DC
:1004100005214C4800F04CFC4E49088008460088F5
:100420000012484948714B4800788871012001F05A
:100430002FFE04E071E003E050A001F0A9FC6BE0A6
:10044000414800881E2803DD54A001F0A1FC63E0B0
:100450003B484078C01110B1012857D133E03A48E9
:10046000008800EB4000404901EB8000428936489B
:1004700001884FA001F08CFC3348008800EB40005D
:10048000394901EB8000408900122E49C8702E487E
:10049000008800EB4000344901EB8000807A294954
:1004A00008710521274800F003FC2A490880084606
:1004B000008800122349487126480078887101207D
:1004C00001F0E6FD26E0224802881F48018841A08D
:1004D00001F05EFC1E4800881B49098801EB4101C0
:1004E000214A02EB810148810521164800F0E0FB1A
:1004F00018490880084600880012124948711548BA
:1005000000788871012001F0C3FD03E03AA001F0FA
:100510003FFC00BF00BF00BF00BF0221024800F047
:100520009DF806B010BD00000064004052784D6593
:1005300073736167655F646174613A200000000055
:10054000850100208C0100209601002094010020EC
:100550009A0100209C010020B1A3B4E6B2CECAFDEE
:10056000000000000020030802000020BBD6B8B441
:10057000B3F6B3A7B2CECAFD000000000D0AB1A3C6
:10058000B4E6B2CECAFDD6B8C1EEB0B2C8ABD0A305
:10059000D1E9CEBBB4EDCEF30D0A00004172725F1B
:1005A0004944D4BDBDE72030207E20333000000018
:1005B0000D0A2A2A2A2A20B6C12041726D5F4461A1
:1005C00074615B25645D203D202558202A2A2A2A53
:1005D000200D0A000D0A2A2A2A2A20D0B4204172AE
:1005E0006D5F446174615B25645D202558202A2A73
:1005F0002A2A200D0A000000B2CECAFDB4EDCEF3C7
:100600000000000010B50246002000BF20E000EB13
:100610008003114C54F82330934218D100EB80032F
:1006200004EB83031B79CB7000EB800304EB8303A3
:100630001B7A0B7100EB800304EB83031B7B4B7174
:1006400000EB800304EB83031B8A0B8002E0401C59
:100650001428DCD300BF10BD88240008B1F5007F4A
:100660003AD00FDC202928D006DC01291CD004292F
:100670001DD0082940D11DE0402921D0B1F5807F4F
:100680003AD126E0B1F5004F31D006DCB1F5806FEC
:1006900025D0B1F5006F2FD124E0B1F5803F12D005
:1006A000B1F5003F28D111E0154A826025E008220B
:1006B000C26022E01022C2601FE0082202611CE03A
:1006C0001022026119E00822426016E01022426006
:1006D00013E00422426010E0042242600DE0042294
:1006E00042600AE0002282610422426005E00022AA
:1006F00082610422426000E000BF00BF704700003A
:100700000101010000B589B00121052001F006F9C1
:100710000121480601F0E2F84FF40060ADF8200036
:1007200003208DF8220048208DF8230008A92C48CA
:1007300000F0A6FF4FF48050ADF8200003208DF8A4
:10074000220018208DF8230008A9254800F098FF02
:10075000244800F04BF805A800F006FA00208DF8B8
:100760001A008DF81B008DF81C008DF81D008DF807
:100770001E0001208DF81F0000208DF8160005A92D
:10078000FA20FFF73FFF05A9164800F0D8F818B97E
:1007900002201549087002E000201349087000206B
:1007A0008DF80E008DF80F0001208DF8100000204C
:1007B000ADF80400ADF80600ADF80800ADF80A0089
:1007C000ADF80C0001208DF8110001A800F02AF806
:1007D00001220221034800F0A9F809B000BD000081
:1007E00000080140006400408401002010B5044668
:1007F0000B48844209D10121480601F07FF800210D
:100800004FF0007001F07AF808E00121880601F04D
:1008100075F800214FF0806001F070F810BD000005
:100820000064004010B50021837A012202FA03F12E
:100830003D4A126842F001023B4B1A603A4A1C32B0
:1008400012688A43384B1C331A60027BCAB9364A95
:100850000C3212688A43344B0C331A604288C388C6
:1008600042EA0343304A4032847A42F83430028804
:10087000838842EA03432C4A4032847A02EBC40262
:100880005360027B012A19D1274A0C3212680A43AD
:10089000254B0C331A604288038842EA0343224AFC
:1008A0004032847A42F83430C288838842EA034373
:1008B0001D4A4032847A02EBC4025360C27A3AB9CC
:1008C000194A121D12688A43174B1B1D1A6006E055
:1008D000154A121D12680A43134B1B1D1A60028928
:1008E00032B9114A143212688A430F4B14331A601A
:1008F0000289012A06D10C4A143212680A430A4BB3
:1009000014331A60427B012A06D1074A1C3212684E
:100910000A43054B1C331A60034A126822F0010295
:10092000014B1A6010BD0000006600401AB1436917
:100930000B43436102E043698B434361704730B529
:10094000024600200023146824F002041460146896
:1009500044F00104146000E05B1C546804F00104DE
:100960001CB94FF6FF74A342F6D1546804F0010499
:100970000CB900206CE08C79012C04D1146844F08F
:100980008004146003E0146824F080041460CC79BF
:10099000012C04D1146844F04004146003E014688E
:1009A00024F0400414600C7A012C04D1146844F043
:1009B0002004146003E0146824F0200414604C7ACE
:1009C000012C04D1146844F01004146003E014688E
:1009D00024F0100414608C7A012C04D1146844F0C3
:1009E0000804146003E0146824F008041460CC7A4E
:1009F000012C04D1146844F00404146003E014686A
:100A000024F0040414608C78A407CD7844EA0564CB
:100A10000D7944EA05444D7944EA05540D886D1E6C
:100A20002C43D461146824F001041460002300E016
:100A30005B1C546804F001041CB14FF6FF74A34220
:100A4000F6D1546804F001040CB1002000E001204C
:100A500030BD08B54FF4A06000F02CFF14208DF8D5
:100A6000000001208DF801008DF802008DF80300D0
:100A7000684600F0E7FE08BD10B500F5D87303EB3B
:100A800001131B6803F004031372137A53B900F5C2
:100A9000D87303EB01131B6840F2FF7404EA53534D
:100AA000136009E000F5D87303EB01131B686FF0C6
:100AB000604404EAD303536000F5D87303EB0113D9
:100AC0001B6803F00203537200F5D87303EB0113A4
:100AD0005B6803F00F03937200F5D87303EB011307
:100AE0005B681B0AD37400F5D87303EB01139B6892
:100AF000D37200F5D87303EB01139B681C0A1473BF
:100B000000F5D87303EB01139B681C0C547300F5BC
:100B1000D87303EB01139B681B0E937300F5D87316
:100B200003EB0113DB68D37300F5D87303EB0113F8
:100B3000DB681C0A147400F5D87303EB0113DB683F
:100B40001C0C547400F5D87303EB0113DB681B0E07
:100B5000937421B9C36843F02003C36003E00369C1
:100B600043F02003036110BD00218171C171017246
:100B700041728172C1728170C170032101710221C1
:100B8000417101210180704710B502460020936831
:100B900003F08063B3F1806F00D110E0936803F03D
:100BA0000063B3F1006F01D1012008E0936803F006
:100BB0008053B3F1805F01D1022000E004200428BB
:100BC00074D002F5C07303EB00131B6803F001043B
:100BD00002F5C07303EB00131C600B7A7BB94B7AF0
:100BE0000C8843EA445302F5C07404EB00142468F3
:100BF000234302F5C07404EB0014236010E00B7A69
:100C00004C6843EAC4034C7A234302F5C07404EBF6
:100C100000142468234302F5C07404EB001423601D
:100C20008B7A03F00F038B7202F5C07303EB001392
:100C30005B6823F00F0402F5C07303EB00135C60E4
:100C400002F5C07303EB00135B688C7A234302F553
:100C5000C07404EB001463608B7B1C064B7B44EA7E
:100C600003440B7B44EA0323CC7A234302F5C0748C
:100C700004EB0014A3608B7C1C064B7C44EA034409
:100C80000B7C44EA0323CC7B234302F5C07404EBC2
:100C90000014E36002F5C07303EB00131B6843F01C
:100CA000010402F5C07303EB00131C6010BD0000CB
:100CB00030B50246002011E00446C51700EB15656B
:100CC000C5F307234FF6FF7404EA002014785C4054
:100CD000054D35F824404440A0B2521C0C1EA1F131
:100CE0000105E9B2E8D130BD18260008F0B5044688
:100CF0004FF4FA70B4FBF0F7B4FBF0F100FB1146CF
:100D0000002504E04FF4FA7000F008F86D1CBD42B5
:100D1000F8DB16B1304600F001F8F0BD01460020C6
:100D2000104A12884A434FF0E0235A6100229A6128
:100D30001A46126942F001021A6100BF4FF0E02228
:100D4000106900F480321AB900F00102002AF5D1CE
:100D50004FF0E022126922F001024FF0E0231A6105
:100D6000704700007801002001460020104A1278E8
:100D70004A434FF0E0235A6100229A611A461269F1
:100D800042F001021A6100BF4FF0E022106900F446
:100D900080321AB900F00102002AF5D14FF0E022AA
:100DA000126922F001024FF0E0231A61704700003F
:100DB0007601002010B54FF4006000F053FB0028CE
:100DC00041D04FF40061204800F0E5FC10BB0A2040
:100DD000FFF78CFF4FF400611B4800F0DCFCC8B942
:100DE0001A48008800EB4000194901EB8000807927
:100DF000012810D11748007828B90121164800F0C1
:100E0000D3FC012004E00121134800F0CFFC0020B6
:100E10001049087013E00121A42001F093FA0E217B
:100E2000842001F0D3F90948008801F075F9002108
:100E3000882001F0CBF940F6B830FFF757FF4FF4A8
:100E4000006000F0B1FA10BD000C01407A010020F2
:100E500002000020800100200008014010B54FF47E
:100E6000807000F0FFFA00287DD04FF48071FB48BD
:100E700000F091FC002877D10A20FFF737FF4FF4EC
:100E80008071F64800F087FC0028F4D1F44800781F
:100E900010B1012851D151E0F24800881D2800D935
:100EA00004E0F0480088401CEE4908800121A4209D
:100EB00001F048FA0E21842001F088F9E948008801
:100EC00001F02AF94FF4AF70FFF710FF0020E64958
:100ED00008802BE0E34800881D2800D904E0E148A1
:100EE0000088401CDF4908800121A42001F02AFA73
:100EF0000E21842001F06AF9DA48008801F00CF92B
:100F0000D94800880A2190FBF1F0C0F13204204654
:100F1000FFF7ECFED4480088B0F5F57F05DAD2483B
:100F20000088401CD049088000E000BF4FF4807169
:100F3000CA4800F030FC0028CCD0B5E0C948008891
:100F400000EB4000C94901EB80004089C549098890
:100F500001EB4101C54A02EB81018988884219DB16
:100F60000121A42001E0A4E09FE001F0EBF9BD49DC
:100F7000098801EB4101BD4A02EB8101888801F03B
:100F8000CBF80021882001F021F940F6B830FFF7B6
:100F9000ADFE88E0B348008800EB4000B34901EBA8
:100FA00080004089AF49098801EB4101AF4A02EB5B
:100FB00081018988884200DB10E0AA48008800EBA4
:100FC0004000AA4901EB80004089401CA5490988DE
:100FD00001EB4101A54A02EB810148810121A420D6
:100FE00001F0B0F99F49098801EB41019F4A02EBEA
:100FF0008101488901F090F84FF4AF70FFF776FE59
:1010000000209949088047E09648008800EB40009E
:10101000964901EB800040899249098801EB410122
:10102000924A02EB81018988884200DB10E08D48FA
:10103000008800EB40008D4901EB80004089401C96
:101040008849098801EB4101884A02EB8101488106
:101050000121A42001F076F98249098801EB4101C0
:10106000824A02EB8101488901F056F87E480088E7
:101070000A2190FBF1F0C0F132042046FFF736FE62
:1010800079480088B0F5F57F05DA77480088401C7C
:101090007549088000E000BF4FF480716F4800F090
:1010A0007AFB0028B0D000BF00BF4FF4807000F082
:1010B0007BF9802000F0D6F998B380216C4800F0CD
:1010C0006AFB58BB0A20FFF711FE8021684800F038
:1010D00062FB18BB0221664800F066FB00F090FA44
:1010E000352000F01DFA634800F020FA00240DE0DE
:1010F00004EB44025D4B03EB820251895D4A0223FB
:1011000003FB042000F05CFA601CC4B21F2CEFDB70
:1011100000F04CFA0221564800F048FB802000F015
:1011200043F94FF4007000F09DF900287ED04FF491
:1011300000714F4800F02FFB002878D10A20FFF7FC
:10114000D5FD4FF400714A4800F025FB0028F4D18A
:101150004348007810B1012853D153E0414800883A
:10116000012805DD3F480088401E3E49088000E018
:1011700000BF0121A42001F0E5F80E21842001F038
:1011800025F83848008800F0C7FF4FF4AF70FFF72C
:10119000ADFD0020344908802CE032480088012849
:1011A00005DD30480088401E2E49088000E000BF61
:1011B0000121A42001F0C6F80E21842001F006F8D8
:1011C0002848008800F0A8FF274800880A2190FBE3
:1011D000F1F0C0F132042046FFF788FD2248008874
:1011E000B0F5F57F05DA20480088401C1E490880CC
:1011F00000E000BF4FF400711D4800F0CCFA002859
:10120000CBD0C3E01748008800EB4000174901EB42
:10121000800040891349098801EB4101134A02EB20
:1012200081014988884227DC012101E0B3E0AEE07A
:10123000A42001F087F80B49098801EB41010B4A12
:1012400002EB8101488800F067FF0021882000F050
:10125000BDFF40F6B830FFF749FD96E000080140B9
:10126000800100207A01002082010020020000207D
:1012700000100140002003084748008800EB4000B0
:10128000464901EB800040894349098801EB41014F
:10129000424A02EB81014988884200DC10E03E4866
:1012A000008800EB40003D4901EB80004089401E72
:1012B0003949098801EB4101384A02EB8101488133
:1012C0000121A42001F03EF83349098801EB4101D6
:1012D000324A02EB8101488900F01EFF4FF4AF70E3
:1012E000FFF704FD00202E49088047E02A480088C7
:1012F00000EB4000294901EB80004089264909881C
:1013000001EB4101254A02EB81014988884200DC5A
:1013100010E02148008800EB4000204901EB8000EC
:101320004089401E1C49098801EB41011B4A02EB20
:10133000810148810121A42001F004F8164909889F
:1013400001EB4101154A02EB8101488900F0E4FEFE
:10135000134800880A2190FBF1F0C0F132042046C6
:10136000FFF7C4FC0E480088B0F5F57F05DA0C489D
:101370000088401C0A49088000E000BF4FF400715B
:10138000084800F008FA0028B0D000BF00BF4FF4B2
:10139000007000F009F810BD7A0100200200002062
:1013A00082010020001001400149086070470000E0
:1013B000140401400EB501211D2000F0AFFA0320F6
:1013C0008DF8020004208DF803004FF46070ADF832
:1013D00000006946204800F053F94FF40060ADF872
:1013E000000069461D4800F04BF94FF48070ADF8DD
:1013F000000069461A4800F043F90721022000F076
:101400001FF98020FFF7D0FF0921022000F018F912
:101410004FF40070FFF7C8FF0B21012000F010F916
:101420004FF40060FFF7C0FF0821002000F008F92A
:101430004FF48070FFF7B8FF00208DF808001020EF
:101440008DF809004FF43860019001208DF80A00F2
:1014500001A800F01BF80EBD00100140000C014077
:1014600000080140014600200022074B1B6803EAE8
:101470000102054B14331B680B4013B10AB1012064
:1014800000E00020704700000004014000212349D3
:101490008279002A3AD00A46126803689A430B46BA
:1014A0001A600A1D126803689A430B1D1A600279BC
:1014B00011440A6803681A430A60184A083212681D
:1014C00003689A43154B08331A601A1D12680368A3
:1014D0009A43124B0C331A604279102A0ED11A1F0C
:1014E000126803681A430D4B08331A601A1D1268FC
:1014F00003681A43094B0C331A600DE0074942791F
:1015000011440A6803681A430A6005E0027911442D
:101510000A6803689A430A607047000000040140AB
:101520000149C860704700000020024030B5044601
:1015300004254FF4302000F06FF80546042D17D134
:101540000C48006940F002000A49086108464461FD
:10155000006940F0400008614FF4302000F05CF872
:1015600005460448006941F6FD71084001490861DB
:10157000284630BD0020024004200B49C96801F014
:10158000010109B101200EE00749C96801F0040119
:1015900009B1022007E00449C96801F0100109B14E
:1015A000032000E004207047002002400348006947
:1015B00040F08000014908617047000000200240AF
:1015C00070B504460D460426F00200F025F80646E4
:1015D000042E11D10948006940F001000749086153
:1015E0002580F00200F018F806460448006941F62C
:1015F000FE71084001490861304670BD002002407C
:101600000248034948600348486070472301674522
:1016100000200240AB89EFCD00B502460423FFF75E
:10162000ABFF034603E0FFF7A7FF0346521E012B63
:1016300001D1002AF7D102B90523184600BD0000E8
:1016400030B500228B071C0F0F2303FA04F20B4B5B
:101650008C1053F824309343084C8D1044F82530F7
:1016600023468C1053F824308C07240F00FA04F41E
:101670002343024C8D1044F8253030BD0800014052
:101680002DE9F04102460025002600200023002419
:10169000002791F803C00CF00F0591F803C00CF07F
:1016A000100CBCF1000F03D091F802C04CEA050504
:1016B00091F800C0BCF1000F31D0146800202BE07D
:1016C0004FF0010C0CFA00F3B1F800C00CEA03066D
:1016D0009E4220D183004FF00F0C0CFA03F7BC435D
:1016E00005FA03FC4CEA040491F803C0BCF1280F8E
:1016F00006D14FF0010C0CFA00FCC2F814C00AE04D
:1017000091F803C0BCF1480F05D14FF0010C0CFA61
:1017100000FCC2F810C0401C0828D1D31460B1F8F6
:1017200000C0BCF1FF0F34DD546800202EE000F152
:10173000080C4FF0010808FA0CF3B1F800C00CEAED
:1017400003069E4221D183004FF00F0C0CFA03F7E1
:10175000BC4305FA03FC4CEA040491F803C0BCF155
:10176000280F05D100F1080C08FA0CF8C2F8148013
:1017700091F803C0BCF1480F07D100F1080C4FF0FD
:10178000010808FA0CF8C2F81080401C0828CED3D3
:101790005460BDE8F0810246002093680B400BB115
:1017A000012000E0002070474161704701617047EF
:1017B00008B500214FF0006000F086F84FF4E060BB
:1017C00000F078F828208DF8000000208DF8010046
:1017D0008DF8020001208DF80300684600F032F811
:1017E00017208DF80000684600F02CF808BD0000B6
:1017F00008B50121142000F091F803208DF80200B3
:1018000010208DF803000620ADF8000069460B4853
:10181000FFF736FF0120ADF8000069460848FFF7E2
:101820002FFF02210548FFF7C1FF04210348FFF7FE
:10183000BDFF01210248FFF7B9FF08BD00100140BC
:101840000008014070B5002100230F22C47804B3C2
:10185000154C246804F4E064C4F5E064210AC1F185
:101860000403CA40447804FA03F184781440214305
:1018700009010E4C0678A155047804F01F050124D7
:10188000AC4005786D11AD0005F1E025C5F80041CB
:1018900009E0047804F01F050124AC40044D0678EB
:1018A000761145F8264070BD0CED00E000E400E044
:1018B00080E100E002490143024A116070470000E4
:1018C0000000FA050CED00E0024A0A400243024B18
:1018D0001A60704780FFFF1F08ED00E029B1064A3B
:1018E000D2690243044BDA6104E0034AD2698243BD
:1018F000014BDA61704700000010024029B1064A2E
:1019000012690243044B1A6104E0034A12698243DC
:10191000014B1A61704700000010024029B1064ACD
:1019200092690243044B9A6104E0034A926982433C
:10193000014B9A6170470000001002402DE9F04110
:1019400000210022002500230026002400278C46C9
:10195000DFF86081D8F8048008F00C0121B1042977
:1019600007D0082959D109E0DFF84C81C0F8008080
:1019700058E0DFF84481C0F8008053E0DFF834819C
:10198000D8F8048008F47012DFF82881D8F80480B1
:1019900008F48035920C0D2A01D0921C00E006223A
:1019A00035B9DFF8188102FB08F8C0F8008033E091
:1019B000DFF80081D8F82C8008F48036DFF8F48056
:1019C000D8F82C8008F00F0808F1010446B9DFF8B8
:1019D000E880B8FBF4F808FB02F8C0F800801BE0D0
:1019E000DFF8D080D8F82C80C8F3031808F101077D
:1019F000DFF8C080D8F82C80C8F3032808F1020C67
:101A0000DFF8B480B8FBF7F808FB0CF8B8FBF4F883
:101A100008FB02F8C0F8008004E0DFF89C80C0F802
:101A2000008000BF00BFDFF88C80D8F8048008F089
:101A3000F0010909DFF8888018F80130D0F800803B
:101A400028FA03F8C0F80480DFF86880D8F804802A
:101A500008F4E061090ADFF8688018F80130D0F86E
:101A6000048028FA03F8C0F80880DFF84880D8F826
:101A7000048008F46051C90ADFF8448018F8013086
:101A8000D0F8048028FA03F8C0F80C80DFF824802E
:101A9000D8F8048008F44041890BDFF8288018F852
:101AA0000130D0F80C80B8FBF3F8C0F81080BDE826
:101AB000F08100000010024000127A0000093D0091
:101AC000B4010020C401002010B500F001F810BDE1
:101AD0000CB50020019000903F48006840F4803031
:101AE0003D49086000BF3C48006800F400300090A9
:101AF0000198401C0190009818B90198B0F5A06FAA
:101B0000F1D13548006800F4003010B10120009098
:101B100001E000200090009801285CD12F48006867
:101B200040F010002D4908600846006820F00300CE
:101B300008600846006840F00200086026484068D7
:101B4000254948600846406848600846406840F4B7
:101B5000806048600846C06A214908401E49C86242
:101B60000846C06A1F4908431B49C8620846006806
:101B700040F08060086000BF1748006800F0006017
:101B80000028F9D01448406820F47C1012494860BD
:101B90000846406840F4E81048600846006840F095
:101BA0008070086000BF0C48006800F000700028DA
:101BB000F9D00948406820F003000749486008460A
:101BC000406840F00200486000BF0348406800F0F1
:101BD0000C000828F9D10CBD001002400020024082
:101BE00000F0FEFF14080100042808D14FF0E021A6
:101BF000096941F004014FF0E022116107E04FF064
:101C0000E021096921F004014FF0E02211617047E1
:101C100010B51648006840F00100144908600846F5
:101C20004068134908401149486008460068114956
:101C300008400E4908600846006820F480200860CB
:101C40000846406820F4FE0048600846006820F01E
:101C5000A05008604FF47F0088600020C862FFF742
:101C600033FF4FF000600449086010BD00100240CF
:101C70000000FFF0FFFFF6FE08ED00E021B18289D1
:101C800042F40052828104E082894DF6FF731A40CB
:101C90008281704702460020B1F5007F00D100BF6D
:101CA00013880B400BB1012000E0002070470000BA
:101CB0002DE9F04786B005460E460024A24600BF37
:101CC000A1460027B08900B100BF2F462C8A4CF6F0
:101CD000FF700440F08804432C82AC894EF6F31068
:101CE0000440B08831890843718908430443AC81BA
:101CF000AC8A4FF6FF400440B0890443AC8201A88F
:101D0000FFF71CFE1F48874202D1DDF810A001E05A
:101D1000DDF80CA0A88900F4004040B10AEBCA002D
:101D200000EB0A1031684900B0FBF1F807E00AEB5C
:101D3000CA0000EB0A1031688900B0FBF1F864209A
:101D4000B8FBF0F004012009642101FB1089A88987
:101D500000F4004040B1322000EBC900B0FBF1F0CC
:101D600000F00700044308E0322000EB0910642172
:101D7000B0FBF1F000F00F0004432C8106B0BDE889
:101D8000F087000000380140C1F3080282807047EC
:101D90000FB4054B10B503A9044A029800F018F8D7
:101DA00010BC5DF814FB0000312200087C0100200B
:101DB00002E008C8121F08C1002AFAD17047704714
:101DC000002001E001C1121F002AFBD17047000072
:101DD0002DE9FF4F8DB09B460F460446002606E0D6
:101DE00025280BD05A460F999047641C761C207802
:101DF0000028F5D111B03046BDE8F08F0025A84687
:101E00000122984900E0054314F8013F203B02FA03
:101E100003F00842F7D120782E2817D114F8010FCB
:101E200045F004052A280ED06FF02F022078A0F18B
:101E3000300109290AD808EB880102EB410100EBC7
:101E40000108641CF2E757F8048B641C20786C28A6
:101E50000DD004DC4C2812D06A2811D104E074287B
:101E60000DD07A280CD10AE045F4001507E061781E
:101E700045F48015814202D1641C05F58015641C6F
:101E80002278692A45D008DC002AB3D0582A69D0C4
:101E9000632A10D0642A08D13BE0702A67D0732AE5
:101EA00013D0752A5CD0782A5CD010465A460F9918
:101EB0009047761CD3E017F8040B8DF80000002043
:101EC0008DF80100E946012003E057F8049B4FF02C
:101ED000FF3069074FF0000501D40AE06D1C45454D
:101EE0000DDA8542FADB19F805100029F6D106E073
:101EF0006D1C8542FCDB19F805100029F8D12E4431
:101F000004E019F8010B5A460F9990476D1EF8D25C
:101F1000A5E00A200021CDE90801C5F302500228FE
:101F20000DD001CFC117031E71F100030DDA4FF080
:101F3000000CD0EB0C006CEB01012D2308E0FF1D21
:101F400027F00707F7E80201EDE72B0504D52B235F
:101F50008DF8283001233BE0EB0739D02023F7E749
:101F60000A2000E010200021CDE9080107E0102040
:101F7000002145F00405CDE908014FF00808C5F33C
:101F8000025002280FD001CF00214FF0000A2B078A
:101F90001FD5702A0DD0DDE908C38CF0100C5CEA67
:101FA000030C0CD015E0FF1D27F00707F7E802012E
:101FB000EBE740228DF828204FF0010A0BE050EAB1
:101FC000010306D030238DF828308DF82920022314
:101FD0009A46582A04D024A20DF120090B9209E058
:101FE00026A2F9E7DDE90823FEF7CEF80B9B9B5C00
:101FF00009F8013D50EA0102F4D1ADEB09002030AF
:102000000890680701D44FF001080899884502DD5F
:10201000A8EB010000E000208046002506E00AA8A9
:102020005A46405D0F9990476D1C761C5545F6DB6E
:1020300004E030205A460F999047761CB8F1000111
:10204000A8F10108F5DC05E019F8010B5A460F99D3
:102050009047761C0899481E08900029F4DC641CFF
:10206000C5E60000092801003031323334353637F7
:1020700038396162636465660000000030313233D4
:102080003435363738394142434445460000000074
:10209000F0B585B005460E460095002001908DF8FC
:1020A00008008DF8090007208DF80A00002405E0DB
:1020B000315D0DF10B000155601CC4B2072CF7DB3C
:1020C00069460348FEF760FD074605B0F0BD000015
:1020D0000064004010B56FF00400FFF785FD0A486A
:1020E00000680A49B0FBF1F0094908700846007819
:1020F00000EB4001C1EBC0104FF6FF7101EAC000D8
:102100000449088010BD0000A001002000127A00E0
:1021100076010020780100202DE9F041044629488D
:10212000844202DC284884421EDA0921802000F023
:102130004DF80921812000F049F80921822000F0A2
:1021400045F80921832000F041F8002C01DA0A202B
:1021500000E009200146842000F038F800218820A2
:1021600000F034F8BDE8F0810125274601E0681C45
:10217000C5B20A2097FBF0F0071EF8D1002C01DB56
:10218000204606E005F18001C8B20A2100F01EF8E1
:1021900060420446002611E00A2094FBF0F100FBA7
:1021A000114000F0FF0806F18001C8B2414600F07E
:1021B0000DF80A2094FBF0F4701CC6B2AE42EBDBC3
:1021C00000BFCFE79F860100F1D8FFFF70B505463D
:1021D0000C460221284600F0B5F80221204600F006
:1021E000B1F84FF480510248FFF7E0FA70BD0000EB
:1021F000000C014070B505460C460121A42000F0FA
:10220000A1F80E218420FFF7E1FF2846FFF784FFA5
:102210004FF47A70FEF76AFD0121A42000F092F8D5
:102220002046FFF779FF4FF47A70FEF75FFD70BD2F
:1022300070B504460D46E0B200F000F9204670BDCE
:10224000FFF748FFFFF7D4FAFFF7B4F8FFF7B0FA4B
:10225000FEF758FAFEF7FDFB4FF4E13000F0AAF864
:1022600000F0FCF80121A42000F06CF828A0FFF792
:102270008FFD00240FE0294A32F8141028A0FFF740
:1022800087FD264931F8140004EB4401264A02EB8D
:1022900081014881641C1F2CEDDB24A0FFF778FD31
:1022A00034E01BA0FFF774FD002408E0601CC4B2FA
:1022B0001A4931F8142021461DA0FFF769FD1E2C94
:1022C000F4DB1AA0FFF764FD1C48007860B91C48D5
:1022D000008800EB4000144A02EB80004189184856
:1022E0000088FFF787FF0DE00121A42000F02AF805
:1022F0001349098801EB41010B4A02EB810148892E
:10230000FFF70AFF4FF47A70FEF7F0FCC9E7000010
:102310000D0A666C6173683A200000000020030813
:102320002025582000000000020000200D0A0000B7
:10233000205B25645D3A25642000000080010020B8
:102340007A01002070B504460D464FF480511848BC
:10235000FFF72AFA002621E004F0800028B14FF4AC
:1023600000411348FFF722FA04E04FF400411048FF
:10237000FFF71AFA4FF400510D48FFF717FA0A2039
:10238000FEF7F2FC4FF400510948FFF70DFA0A205E
:10239000FEF7EAFC6006040E701CC6B2082EDBDBFA
:1023A000012D03D129030248FFF700FA70BD000098
:1023B000000C014010B586B00446012144F204002F
:1023C000FFF7ACFA4FF40070ADF8140001208DF85F
:1023D000160018208DF8170005A91648FFF750F9C8
:1023E0004FF48060ADF8140001208DF816004820ED
:1023F0008DF8170005A90F48FFF742F94FF4E130B7
:1024000001904FF48070ADF810000C20ADF80E0074
:102410000020ADF80C00ADF80A00ADF8080001A9E5
:102420000548FFF745FC01210348FFF727FC06B0EC
:1024300010BD0000000801400038014010B50446FE
:1024400000BF40210448FFF725FC0128F9D12146AF
:102450000148FFF799FC10BD0038014008B5012183
:102460000820FFF75BFA4FF43040ADF80000102071
:102470008DF8030003208DF8020069460148FFF73C
:10248000FFF808BD000C014005000000000000003E
:102490000C00000001000000C20100000A00000062
:1024A0000000000005000000010000009001000095
:1024B0000F000000000000000C0000000100000000
:1024C000960000001400000000000000050000005D
:1024D00001000000C800000019000000000000001A
:1024E0000C000000010000005A000000280000005D
:1024F0000000000005000000010000006400000072
:1025000032000000000000000C000000010000008C
:102510002D0000003E000000000000000C00000044
:102520000100000024000000500000000000000036
:1025300005000000010000003200000064000000FF
:102540000000000004000000010000002D00000059
:102550007D000000000000000C00000001000000F1
:1025600012000000C800000000000000050000008C
:102570000100000014000000FA000000000000004C
:102580000C000000010000000900000090010000A4
:102590000000000005000000010000000A0000002B
:1025A000F401000000000000020000000400000030
:1025B000080000009A020000000000000400000073
:1025C00001000000080000002003000000000000DF
:1025D000050000000100000005000000E803000005
:1025E00000000000050000000100000004000000E1
:1025F00000000000000000000000000000000000DB
:1026000000000000000000000000000000000000CA
:102610000000000000000000000000002110000089
:10262000422000006330000084400000A5500000FC
:10263000C6600000E77000000881000029910000DA
:102640004AA100006BB100008CC10000ADD10000B8
:10265000CEE10000EFF10000311200001002000096
:102660007332000052220000B55200009442000074
:10267000F7720000D6620000399300001883000052
:102680007BB300005AA30000BDD300009CC3000030
:10269000FFF30000DEE3000062240000433400008A
:1026A0002004000001140000E6640000C77400006C
:1026B000A4440000855400006AA500004BB500004A
:1026C0002885000009950000EEE50000CFF5000028
:1026D000ACC500008DD50000533600007226000006
:1026E0001116000030060000D7760000F6660000E4
:1026F00095560000B44600005BB700007AA70000C2
:102700001997000038870000DFF70000FEE700009F
:102710009DD70000BCC70000C4480000E558000079
:1027200086680000A77800004008000061180000DB
:102730000228000023380000CCC90000EDD90000B9
:102740008EE90000AFF90000488900006999000097
:102750000AA900002BB90000F55A0000D44A000075
:10276000B77A0000966A0000711A0000500A000053
:10277000333A0000122A0000FDDB0000DCCB000031
:10278000BFFB00009EEB0000799B0000588B00000F
:102790003BBB00001AAB0000A66C0000877C000069
:1027A000E44C0000C55C0000222C0000033C00004B
:1027B000600C0000411C0000AEED00008FFD000029
:1027C000ECCD0000CDDD00002AAD00000BBD000007
:1027D000688D0000499D0000977E0000B66E0000E5
:1027E000D55E0000F44E0000133E0000322E0000C3
:1027F000511E0000700E00009FFF0000BEEF0000A1
:10280000DDDF0000FCCF00001BBF00003AAF00007E
:10281000599F0000788F000088910000A981000076
:10282000CAB10000EBA100000CD100002DC10000D6
:102830004EF100006FE1000080100000A1000000D8
:10284000C2300000E32000000450000025400000DA
:102850004670000067600000B98300009893000094
:10286000FBA30000DAB300003DC300001CD300004E
:102870007FE300005EF30000B10200009012000050
:10288000F3220000D2320000354200001452000052
:102890007762000056720000EAB50000CBA5000088
:1028A000A8950000898500006EF500004FE5000046
:1028B0002CD500000DC50000E2340000C324000048
:1028C000A01400008104000066740000476400004A
:1028D0002454000005440000DBA70000FAB7000004
:1028E00099870000B89700005FE700007EF70000BE
:1028F0001DC700003CD70000D3260000F2360000C0
:1029000091060000B01600005766000076760000C1
:1029100015460000345600004CD900006DC9000077
:102920000EF900002FE90000C8990000E9890000B5
:102930008AB90000ABA900004458000065480000B7
:102940000678000027680000C0180000E1080000B9
:1029500082380000A32800007DCB00005CDB000073
:102960003FEB00001EFB0000F98B0000D89B00002D
:10297000BBAB00009ABB0000754A0000545A00002F
:10298000376A0000167A0000F10A0000D01A000031
:10299000B32A0000923A00002EFD00000FED000067
:1029A0006CDD00004DCD0000AABD00008BAD000025
:1029B000E89D0000C98D0000267C0000076C000027
:1029C000645C0000454C0000A23C0000832C000029
:1029D000E01C0000C10C00001FEF00003EFF0000E3
:1029E0005DCF00007CDF00009BAF0000BABF00009D
:1029F000D98F0000F89F0000176E0000367E00009F
:102A0000554E0000745E0000932E0000B23E0000A0
:102A1000D10E0000F01E0000382A0008000000203F
:102A2000C80100004E020008182B0008C801002051
:102A300000040000C01D0008E132012A680531329F
:102A40000272329A03185A0404419A051842066227
:102A50006C320763204EB208B209B20A1A0B021494
:102A60004C04011A6E02B20C1A0D02141405011A5C
:102A70008202B20E1A0F021ADC181A9602B2101A4B
:102A8000110214A406011AAA02B2121A1302146C3B
:102A900007011ABE02B2141A1502143408011AD220
:102AA00002B2161A17021AFC181AE6021A180214B1
:102AB0006009011AF0021A19021AC40C1AFA021A51
:102AC0001A0214280A0116040104011B121B1A8C95
:102AD0000C160E010E011C121C1AF00C161801180F
:102AE000011D121D14540B0116220122011E121E7B
:102AF0001AB80C452C012C01390551890AA1791409
:102B00007CA24A04146808020304060708090C6939
:082B1000100500020406080094
:040000050800016589
:00000001FF
